:060000000A128A11FC2F18
:100EF2004130831203139F008030831603139F0037
:100F0200080083120313971517158316031307118D
:100F1200FF3092008312031312149210121508006C
:100F22000430760200300319750203180800751C9C
:100F32009E2F831203131716A12F83120313171266
:100F420097127608F8007508F7000310F80CF70CF2
:100F52000310F80CF70C7708950008000A128A11A2
:100F620082270A128A110A128A1179270A128A1111
:100F720000300A128A11D0270A128A117108F6006B
:100F82007008F5000A128A1191270A128A11C730D5
:100F9200F900CB2FF90BCA2FCE2FCF2FB92FF40088
:100FA20008307402031CD82FF001F101080001304F
:100FB200F2007208831203139F057408F2000230D4
:100FC2000310F20DFF3E031DE12F0310720DF3001B
:100FD20073089F040930F200F20BED2FF02F8312F9
:100FE20003131F151F19F32F1E08F1008316031395
:0E0FF2001E08F000080083010A128A11AF2FBA
:02400E00713F00
:00000001FF
